{
  "contractName": "PriceConsumerV3",
  "abi": [
    {
      "inputs": [],
      "stateMutability": "nonpayable",
      "type": "constructor"
    },
    {
      "inputs": [],
      "name": "ethPerUSD",
      "outputs": [
        {
          "internalType": "int256",
          "name": "",
          "type": "int256"
        }
      ],
      "stateMutability": "view",
      "type": "function"
    },
    {
      "inputs": [],
      "name": "USDCPerETH",
      "outputs": [
        {
          "internalType": "int256",
          "name": "",
          "type": "int256"
        },
        {
          "internalType": "uint256",
          "name": "",
          "type": "uint256"
        }
      ],
      "stateMutability": "view",
      "type": "function"
    },
    {
      "inputs": [],
      "name": "BNBperUSD",
      "outputs": [
        {
          "internalType": "int256",
          "name": "",
          "type": "int256"
        },
        {
          "internalType": "uint80",
          "name": "",
          "type": "uint80"
        }
      ],
      "stateMutability": "view",
      "type": "function"
    }
  ],
  "bytecode": "0x608060405234801561001057600080fd5b50739326bfa02add2366b30bacb125260af6410313316000806101000a81548173ffffffffffffffffffffffffffffffffffffffff021916908373ffffffffffffffffffffffffffffffffffffffff1602179055507364eac61a2dfda2c3fa04eed49aa33d021aec8838600160006101000a81548173ffffffffffffffffffffffffffffffffffffffff021916908373ffffffffffffffffffffffffffffffffffffffff160217905550738993ed705cdf5e84d0a3b754b5ee0e1783fcdf16600260006101000a81548173ffffffffffffffffffffffffffffffffffffffff021916908373ffffffffffffffffffffffffffffffffffffffff1602179055506103c28061011e6000396000f3fe608060405234801561001057600080fd5b50600436106100415760003560e01c8063498545ca14610046578063aca5c3751461006b578063d06bb8e6146100a8575b600080fd5b61004e6100c6565b604051808381526020018281526020019250505060405180910390f35b6100736101b5565b604051808381526020018269ffffffffffffffffffff1669ffffffffffffffffffff1681526020019250505060405180910390f35b6100b06102a4565b6040518082815260200191505060405180910390f35b6000806000806000806000600160009054906101000a900473ffffffffffffffffffffffffffffffffffffffff1673ffffffffffffffffffffffffffffffffffffffff1663feaf968c6040518163ffffffff1660e01b815260040160a06040518083038186803b15801561013957600080fd5b505afa15801561014d573d6000803e3d6000fd5b505050506040513d60a081101561016357600080fd5b8101908080519060200190929190805190602001909291908051906020019092919080519060200190929190805190602001909291905050509450945094509450945083829650965050505050509091565b6000806000806000806000600260009054906101000a900473ffffffffffffffffffffffffffffffffffffffff1673ffffffffffffffffffffffffffffffffffffffff1663feaf968c6040518163ffffffff1660e01b815260040160a06040518083038186803b15801561022857600080fd5b505afa15801561023c573d6000803e3d6000fd5b505050506040513d60a081101561025257600080fd5b8101908080519060200190929190805190602001909291908051906020019092919080519060200190929190805190602001909291905050509450945094509450945083819650965050505050509091565b6000806000806000806000809054906101000a900473ffffffffffffffffffffffffffffffffffffffff1673ffffffffffffffffffffffffffffffffffffffff1663feaf968c6040518163ffffffff1660e01b815260040160a06040518083038186803b15801561031457600080fd5b505afa158015610328573d6000803e3d6000fd5b505050506040513d60a081101561033e57600080fd5b8101908080519060200190929190805190602001909291908051906020019092919080519060200190929190805190602001909291905050509450945094509450945083955050505050509056fea26469706673582212203ca7f57ee3a560be2f3b8f940fd61c6b0a4d2634a1a3cc94666f63d96bdba8ae64736f6c63430006060033",
  "immutableReferences": {},
  "source": "// SPDX-License-Identifier: MIT\r\npragma solidity 0.6.6;\r\n\r\nimport \"@chainlink/contracts/src/v0.6/interfaces/AggregatorV3Interface.sol\";\r\n\r\ncontract PriceConsumerV3 {\r\n    AggregatorV3Interface internal priceFeedEth;\r\n    AggregatorV3Interface internal priceFeedUSDC;\r\n    AggregatorV3Interface internal priceFeedBNB;\r\n\r\n    /**\r\n     * Network: Kovan\r\n     * Aggregator: ETH/USD\r\n     * Address: 0x9326BFA02ADD2366b30bacB125260Af641031331\r\n     * Aggregator: USDC/ETH\r\n     * Address: 0x64EaC61A2DFda2c3Fa04eED49AA33D021AeC8838\r\n     * Aggregator: BNB/USD\r\n     * Address: 0x8993ED705cdf5e84D0a3B754b5Ee0e1783fcdF16\r\n     */\r\n    constructor() public {\r\n        priceFeedEth = AggregatorV3Interface(\r\n            0x9326BFA02ADD2366b30bacB125260Af641031331\r\n        );\r\n        priceFeedUSDC = AggregatorV3Interface(\r\n            0x64EaC61A2DFda2c3Fa04eED49AA33D021AeC8838\r\n        );\r\n        priceFeedBNB = AggregatorV3Interface(\r\n            0x8993ED705cdf5e84D0a3B754b5Ee0e1783fcdF16\r\n        );\r\n    }\r\n\r\n    /**\r\n     * @dev Returns the latest price for ETH/USD\r\n     * Fiat currency => 8 decimals\r\n     * Crypto currency => 18 decimals\r\n     */\r\n    function ethPerUSD() public view returns (int256) {\r\n        (\r\n            uint80 roundID,\r\n            int256 price,\r\n            uint256 startedAt,\r\n            uint256 timeStamp,\r\n            uint80 answeredInRound\r\n        ) = priceFeedEth.latestRoundData();\r\n        return price;\r\n    }\r\n\r\n    /**\r\n     * @dev Returns the latest price for USDC/ETH\r\n     * Fiat currency => 8 decimals\r\n     * Crypto currency => 18 decimals\r\n     */\r\n    function USDCPerETH() public view returns (int256, uint256) {\r\n        (\r\n            uint80 roundID,\r\n            int256 price,\r\n            uint256 startedAt,\r\n            uint256 timeStamp,\r\n            uint80 answeredInRound\r\n        ) = priceFeedUSDC.latestRoundData();\r\n        return (price, timeStamp);\r\n    }\r\n\r\n    /**\r\n     * @dev Returns the latest price for BNB/USD\r\n     * Fiat currency => 8 decimals\r\n     * Crypto currency => 18 decimals\r\n     */\r\n    function BNBperUSD() public view returns (int256, uint80) {\r\n        (\r\n            uint80 roundID,\r\n            int256 price,\r\n            uint256 startedAt,\r\n            uint256 timeStamp,\r\n            uint80 answeredInRound\r\n        ) = priceFeedBNB.latestRoundData();\r\n        return (price, answeredInRound);\r\n    }\r\n}\r\n",
  "sourcePath": "C:/Users/shelly/Desktop/Blockchain/Ethereum/Oracles/contracts/PriceFeed.sol",
  "compiler": {
    "name": "solc",
    "version": "0.6.6+commit.6c089d02.Emscripten.clang"
  },
  "schemaVersion": "3.4.1",
  "updatedAt": "2021-08-01T11:40:21.958Z",
  "devdoc": {
    "methods": {
      "BNBperUSD()": {
        "details": "Returns the latest price for BNB/USD Fiat currency => 8 decimals Crypto currency => 18 decimals"
      },
      "USDCPerETH()": {
        "details": "Returns the latest price for USDC/ETH Fiat currency => 8 decimals Crypto currency => 18 decimals"
      },
      "ethPerUSD()": {
        "details": "Returns the latest price for ETH/USD Fiat currency => 8 decimals Crypto currency => 18 decimals"
      }
    }
  },
  "userdoc": {
    "methods": {
      "constructor": "Network: Kovan Aggregator: ETH/USD Address: 0x9326BFA02ADD2366b30bacB125260Af641031331 Aggregator: USDC/ETH Address: 0x64EaC61A2DFda2c3Fa04eED49AA33D021AeC8838 Aggregator: BNB/USD Address: 0x8993ED705cdf5e84D0a3B754b5Ee0e1783fcdF16"
    }
  }
}